{
  "contractName": "Ifactor",
  "abi": [
    {
      "constant": false,
      "inputs": [
        {
          "name": "_spender",
          "type": "address"
        },
        {
          "name": "_value",
          "type": "uint256"
        }
      ],
      "name": "approve",
      "outputs": [
        {
          "name": "",
          "type": "bool"
        }
      ],
      "payable": false,
      "stateMutability": "nonpayable",
      "type": "function"
    },
    {
      "constant": true,
      "inputs": [],
      "name": "totalSupply",
      "outputs": [
        {
          "name": "",
          "type": "uint256"
        }
      ],
      "payable": false,
      "stateMutability": "view",
      "type": "function"
    },
    {
      "constant": false,
      "inputs": [
        {
          "name": "_from",
          "type": "address"
        },
        {
          "name": "_to",
          "type": "address"
        },
        {
          "name": "_value",
          "type": "uint256"
        }
      ],
      "name": "transferFrom",
      "outputs": [
        {
          "name": "",
          "type": "bool"
        }
      ],
      "payable": false,
      "stateMutability": "nonpayable",
      "type": "function"
    },
    {
      "constant": false,
      "inputs": [
        {
          "name": "_spender",
          "type": "address"
        },
        {
          "name": "_subtractedValue",
          "type": "uint256"
        }
      ],
      "name": "decreaseApproval",
      "outputs": [
        {
          "name": "",
          "type": "bool"
        }
      ],
      "payable": false,
      "stateMutability": "nonpayable",
      "type": "function"
    },
    {
      "constant": true,
      "inputs": [
        {
          "name": "_owner",
          "type": "address"
        }
      ],
      "name": "balanceOf",
      "outputs": [
        {
          "name": "",
          "type": "uint256"
        }
      ],
      "payable": false,
      "stateMutability": "view",
      "type": "function"
    },
    {
      "constant": false,
      "inputs": [
        {
          "name": "_to",
          "type": "address"
        },
        {
          "name": "_value",
          "type": "uint256"
        }
      ],
      "name": "transfer",
      "outputs": [
        {
          "name": "",
          "type": "bool"
        }
      ],
      "payable": false,
      "stateMutability": "nonpayable",
      "type": "function"
    },
    {
      "constant": false,
      "inputs": [
        {
          "name": "_spender",
          "type": "address"
        },
        {
          "name": "_addedValue",
          "type": "uint256"
        }
      ],
      "name": "increaseApproval",
      "outputs": [
        {
          "name": "",
          "type": "bool"
        }
      ],
      "payable": false,
      "stateMutability": "nonpayable",
      "type": "function"
    },
    {
      "constant": true,
      "inputs": [
        {
          "name": "_owner",
          "type": "address"
        },
        {
          "name": "_spender",
          "type": "address"
        }
      ],
      "name": "allowance",
      "outputs": [
        {
          "name": "",
          "type": "uint256"
        }
      ],
      "payable": false,
      "stateMutability": "view",
      "type": "function"
    },
    {
      "inputs": [],
      "payable": false,
      "stateMutability": "nonpayable",
      "type": "constructor"
    },
    {
      "anonymous": false,
      "inputs": [
        {
          "indexed": false,
          "name": "invoiceId",
          "type": "string"
        },
        {
          "indexed": false,
          "name": "invoiceNo",
          "type": "string"
        },
        {
          "indexed": false,
          "name": "state",
          "type": "string"
        },
        {
          "indexed": false,
          "name": "amount",
          "type": "uint256"
        },
        {
          "indexed": false,
          "name": "supplier",
          "type": "address"
        },
        {
          "indexed": false,
          "name": "buyer",
          "type": "address"
        }
      ],
      "name": "createInvoice",
      "type": "event"
    },
    {
      "anonymous": false,
      "inputs": [
        {
          "indexed": false,
          "name": "invoiceId",
          "type": "string"
        },
        {
          "indexed": false,
          "name": "state",
          "type": "string"
        },
        {
          "indexed": false,
          "name": "created",
          "type": "uint256"
        }
      ],
      "name": "invoiceHistory",
      "type": "event"
    },
    {
      "anonymous": false,
      "inputs": [
        {
          "indexed": false,
          "name": "invoiceId",
          "type": "string"
        },
        {
          "indexed": false,
          "name": "amount",
          "type": "uint256"
        },
        {
          "indexed": false,
          "name": "created",
          "type": "uint256"
        }
      ],
      "name": "factoringRequest",
      "type": "event"
    },
    {
      "anonymous": false,
      "inputs": [
        {
          "indexed": false,
          "name": "invoiceId",
          "type": "string"
        },
        {
          "indexed": false,
          "name": "factorCharges",
          "type": "uint256"
        },
        {
          "indexed": false,
          "name": "factorSaftyPercentage",
          "type": "uint256"
        },
        {
          "indexed": false,
          "name": "amount",
          "type": "uint256"
        },
        {
          "indexed": false,
          "name": "created",
          "type": "uint256"
        }
      ],
      "name": "factoringProposal",
      "type": "event"
    },
    {
      "anonymous": false,
      "inputs": [
        {
          "indexed": false,
          "name": "invoiceId",
          "type": "string"
        },
        {
          "indexed": false,
          "name": "transferType",
          "type": "string"
        },
        {
          "indexed": false,
          "name": "amount",
          "type": "uint256"
        },
        {
          "indexed": false,
          "name": "created",
          "type": "uint256"
        }
      ],
      "name": "ifactorTransfer",
      "type": "event"
    },
    {
      "anonymous": false,
      "inputs": [
        {
          "indexed": false,
          "name": "invoiceId",
          "type": "string"
        },
        {
          "indexed": false,
          "name": "payableDate",
          "type": "uint256"
        }
      ],
      "name": "payableDates",
      "type": "event"
    },
    {
      "anonymous": false,
      "inputs": [
        {
          "indexed": true,
          "name": "owner",
          "type": "address"
        },
        {
          "indexed": true,
          "name": "spender",
          "type": "address"
        },
        {
          "indexed": false,
          "name": "value",
          "type": "uint256"
        }
      ],
      "name": "Approval",
      "type": "event"
    },
    {
      "anonymous": false,
      "inputs": [
        {
          "indexed": true,
          "name": "from",
          "type": "address"
        },
        {
          "indexed": true,
          "name": "to",
          "type": "address"
        },
        {
          "indexed": false,
          "name": "value",
          "type": "uint256"
        }
      ],
      "name": "Transfer",
      "type": "event"
    },
    {
      "constant": false,
      "inputs": [
        {
          "name": "_amt",
          "type": "uint256"
        }
      ],
      "name": "setTotalSupply",
      "outputs": [],
      "payable": false,
      "stateMutability": "nonpayable",
      "type": "function"
    },
    {
      "constant": false,
      "inputs": [
        {
          "name": "_tokens",
          "type": "uint256"
        }
      ],
      "name": "addTotalSupply",
      "outputs": [],
      "payable": false,
      "stateMutability": "nonpayable",
      "type": "function"
    },
    {
      "constant": false,
      "inputs": [
        {
          "name": "_address",
          "type": "address"
        },
        {
          "name": "_value",
          "type": "uint256"
        }
      ],
      "name": "buyTokens",
      "outputs": [],
      "payable": false,
      "stateMutability": "nonpayable",
      "type": "function"
    },
    {
      "constant": true,
      "inputs": [
        {
          "name": "_address",
          "type": "address"
        }
      ],
      "name": "getBalance",
      "outputs": [
        {
          "name": "",
          "type": "uint256"
        }
      ],
      "payable": false,
      "stateMutability": "view",
      "type": "function"
    },
    {
      "constant": false,
      "inputs": [
        {
          "name": "_invoice_id",
          "type": "string"
        },
        {
          "name": "_invoice_no",
          "type": "string"
        },
        {
          "name": "_state",
          "type": "string"
        },
        {
          "name": "_amount",
          "type": "uint256"
        },
        {
          "name": "_supplier",
          "type": "address"
        },
        {
          "name": "_buyer",
          "type": "address"
        },
        {
          "name": "_created",
          "type": "uint256"
        }
      ],
      "name": "addInvoice",
      "outputs": [],
      "payable": false,
      "stateMutability": "nonpayable",
      "type": "function"
    },
    {
      "constant": true,
      "inputs": [
        {
          "name": "_invoice_id",
          "type": "string"
        }
      ],
      "name": "getState",
      "outputs": [
        {
          "name": "",
          "type": "string"
        }
      ],
      "payable": false,
      "stateMutability": "view",
      "type": "function"
    },
    {
      "constant": false,
      "inputs": [
        {
          "name": "_invoice_id",
          "type": "string"
        },
        {
          "name": "_invoice_state",
          "type": "string"
        },
        {
          "name": "_created",
          "type": "uint256"
        }
      ],
      "name": "setState",
      "outputs": [],
      "payable": false,
      "stateMutability": "nonpayable",
      "type": "function"
    },
    {
      "constant": false,
      "inputs": [
        {
          "name": "_invoice_id",
          "type": "string"
        },
        {
          "name": "_payable_date",
          "type": "uint256"
        }
      ],
      "name": "emitPayableDate",
      "outputs": [],
      "payable": false,
      "stateMutability": "nonpayable",
      "type": "function"
    },
    {
      "constant": false,
      "inputs": [
        {
          "name": "_invoice_id",
          "type": "string"
        },
        {
          "name": "_payout_days",
          "type": "uint256"
        }
      ],
      "name": "setPayoutDays",
      "outputs": [],
      "payable": false,
      "stateMutability": "nonpayable",
      "type": "function"
    },
    {
      "constant": true,
      "inputs": [
        {
          "name": "_invoice_id",
          "type": "string"
        }
      ],
      "name": "getAmount",
      "outputs": [
        {
          "name": "",
          "type": "uint256"
        }
      ],
      "payable": false,
      "stateMutability": "view",
      "type": "function"
    },
    {
      "constant": false,
      "inputs": [
        {
          "name": "_invoice_id",
          "type": "string"
        },
        {
          "name": "_financer",
          "type": "address"
        },
        {
          "name": "_factor_charges",
          "type": "uint256"
        },
        {
          "name": "_factor_safty_percentage",
          "type": "uint256"
        },
        {
          "name": "_amount",
          "type": "uint256"
        },
        {
          "name": "_days_to_payout",
          "type": "uint256"
        },
        {
          "name": "_created",
          "type": "uint256"
        }
      ],
      "name": "addFactoring",
      "outputs": [],
      "payable": false,
      "stateMutability": "nonpayable",
      "type": "function"
    },
    {
      "constant": true,
      "inputs": [
        {
          "name": "_invoice_id",
          "type": "string"
        }
      ],
      "name": "getInterestAmount",
      "outputs": [
        {
          "name": "",
          "type": "uint256"
        }
      ],
      "payable": false,
      "stateMutability": "view",
      "type": "function"
    },
    {
      "constant": false,
      "inputs": [
        {
          "name": "_invoice_id",
          "type": "string"
        },
        {
          "name": "_invoice_state",
          "type": "string"
        },
        {
          "name": "_amount",
          "type": "uint256"
        },
        {
          "name": "_created",
          "type": "uint256"
        }
      ],
      "name": "requestFactoring",
      "outputs": [],
      "payable": false,
      "stateMutability": "nonpayable",
      "type": "function"
    },
    {
      "constant": false,
      "inputs": [
        {
          "name": "_invoice_id",
          "type": "string"
        },
        {
          "name": "_amount",
          "type": "uint256"
        },
        {
          "name": "_created",
          "type": "uint256"
        }
      ],
      "name": "prepayFactoring",
      "outputs": [],
      "payable": false,
      "stateMutability": "nonpayable",
      "type": "function"
    },
    {
      "constant": false,
      "inputs": [
        {
          "name": "_invoice_id",
          "type": "string"
        },
        {
          "name": "_amount",
          "type": "uint256"
        },
        {
          "name": "_created",
          "type": "uint256"
        }
      ],
      "name": "payInvoice",
      "outputs": [],
      "payable": false,
      "stateMutability": "nonpayable",
      "type": "function"
    },
    {
      "constant": false,
      "inputs": [
        {
          "name": "_invoice_id",
          "type": "string"
        },
        {
          "name": "_amount",
          "type": "uint256"
        },
        {
          "name": "_created",
          "type": "uint256"
        }
      ],
      "name": "postpayFactoring",
      "outputs": [],
      "payable": false,
      "stateMutability": "nonpayable",
      "type": "function"
    },
    {
      "constant": false,
      "inputs": [
        {
          "name": "_invoice_id",
          "type": "string"
        }
      ],
      "name": "getPostpayAmount",
      "outputs": [
        {
          "name": "",
          "type": "uint256"
        }
      ],
      "payable": false,
      "stateMutability": "nonpayable",
      "type": "function"
    },
    {
      "constant": false,
      "inputs": [
        {
          "name": "_invoice_id",
          "type": "string"
        }
      ],
      "name": "getPrepayAmount",
      "outputs": [
        {
          "name": "",
          "type": "uint256"
        }
      ],
      "payable": false,
      "stateMutability": "nonpayable",
      "type": "function"
    },
    {
      "constant": true,
      "inputs": [
        {
          "name": "_invoice_id",
          "type": "string"
        }
      ],
      "name": "getAddresses",
      "outputs": [
        {
          "name": "",
          "type": "address[]"
        }
      ],
      "payable": false,
      "stateMutability": "view",
      "type": "function"
    },
    {
      "constant": true,
      "inputs": [
        {
          "name": "_invoice_id",
          "type": "string"
        }
      ],
      "name": "getSupplier",
      "outputs": [
        {
          "name": "",
          "type": "address"
        }
      ],
      "payable": false,
      "stateMutability": "view",
      "type": "function"
    },
    {
      "constant": true,
      "inputs": [
        {
          "name": "_invoice_id",
          "type": "string"
        }
      ],
      "name": "getBuyer",
      "outputs": [
        {
          "name": "",
          "type": "address"
        }
      ],
      "payable": false,
      "stateMutability": "view",
      "type": "function"
    },
    {
      "constant": true,
      "inputs": [
        {
          "name": "_invoice_id",
          "type": "string"
        }
      ],
      "name": "getFinancer",
      "outputs": [
        {
          "name": "",
          "type": "address"
        }
      ],
      "payable": false,
      "stateMutability": "view",
      "type": "function"
    },
    {
      "constant": false,
      "inputs": [
        {
          "name": "_invoice_id",
          "type": "string"
        }
      ],
      "name": "getInvoiceAmount",
      "outputs": [
        {
          "name": "",
          "type": "uint256"
        }
      ],
      "payable": false,
      "stateMutability": "nonpayable",
      "type": "function"
    }
  ],
  "bytecode": "0x608060405234801561001057600080fd5b5033600360006101000a81548173ffffffffffffffffffffffffffffffffffffffff021916908373ffffffffffffffffffffffffffffffffffffffff160217905550633b9aca00600181905550633b9aca006000803373ffffffffffffffffffffffffffffffffffffffff1673ffffffffffffffffffffffffffffffffffffffff16815260200190815260200160002081905550613c5a806100b36000396000f30060806040526004361061018b576000357c0100000000000000000000000000000000000000000000000000000000900463ffffffff1680630752881a14610190578063095ea7b3146101dd57806318160ddd1461024257806323b872dd1461026d57806330be8365146102f257806337497c9b1461039b57806339b64c301461041857806366188463146104d657806370a082311461053b5780637bc93384146105925780637deb18ef1461060f57806382cd65cc1461068c578063962819491461070957806398ad06421461077c5780639a49a9c414610825578063a61bcc3b1461096e578063a9059cbb14610a29578063b1c28b5f14610a8e578063b4478fb214610b0b578063cfb234fb14610bb4578063d103a88414610c27578063d73dd62314610ce0578063dd62ed3e14610d45578063e33f77ca14610dbc578063e35cf0ca14610e9e578063e468688e14610f1b578063f117bcf314610f48578063f7ea7a3d14610fc5578063f8b2cb4f14610ff2578063f91c504e14611049578063fecd1f8a1461110c575b600080fd5b34801561019c57600080fd5b506101db600480360381019080803573ffffffffffffffffffffffffffffffffffffffff16906020019092919080359060200190929190505050611189565b005b3480156101e957600080fd5b50610228600480360381019080803573ffffffffffffffffffffffffffffffffffffffff16906020019092919080359060200190929190505050611297565b604051808215151515815260200191505060405180910390f35b34801561024e57600080fd5b50610257611389565b6040518082815260200191505060405180910390f35b34801561027957600080fd5b506102d8600480360381019080803573ffffffffffffffffffffffffffffffffffffffff169060200190929190803573ffffffffffffffffffffffffffffffffffffffff16906020019092919080359060200190929190505050611393565b604051808215151515815260200191505060405180910390f35b3480156102fe57600080fd5b50610359600480360381019080803590602001908201803590602001908080601f016020809104026020016040519081016040528093929190818152602001838380828437820191505050505050919291929050505061174e565b604051808273ffffffffffffffffffffffffffffffffffffffff1673ffffffffffffffffffffffffffffffffffffffff16815260200191505060405180910390f35b3480156103a757600080fd5b50610402600480360381019080803590602001908201803590602001908080601f01602080910402602001604051908101604052809392919081815260200183838082843782019150505050505091929192905050506117eb565b6040518082815260200191505060405180910390f35b34801561042457600080fd5b5061047f600480360381019080803590602001908201803590602001908080601f0160208091040260200160405190810160405280939291908181526020018383808284378201915050505050509192919290505050611896565b6040518080602001828103825283818151815260200191508051906020019060200280838360005b838110156104c25780820151818401526020810190506104a7565b505050509050019250505060405180910390f35b3480156104e257600080fd5b50610521600480360381019080803573ffffffffffffffffffffffffffffffffffffffff16906020019092919080359060200190929190505050611b32565b604051808215151515815260200191505060405180910390f35b34801561054757600080fd5b5061057c600480360381019080803573ffffffffffffffffffffffffffffffffffffffff169060200190929190505050611dc4565b6040518082815260200191505060405180910390f35b34801561059e57600080fd5b506105f9600480360381019080803590602001908201803590602001908080601f0160208091040260200160405190810160405280939291908181526020018383808284378201915050505050509192919290505050611e0c565b6040518082815260200191505060405180910390f35b34801561061b57600080fd5b5061068a600480360381019080803590602001908201803590602001908080601f01602080910402602001604051908101604052809392919081815260200183838082843782019150505050505091929192908035906020019092919080359060200190929190505050611eb6565b005b34801561069857600080fd5b50610707600480360381019080803590602001908201803590602001908080601f01602080910402602001604051908101604052809392919081815260200183838082843782019150505050505091929192908035906020019092919080359060200190929190505050612050565b005b34801561071557600080fd5b5061077a600480360381019080803590602001908201803590602001908080601f0160208091040260200160405190810160405280939291908181526020018383808284378201915050505050509192919290803590602001909291905050506121ea565b005b34801561078857600080fd5b506107e3600480360381019080803590602001908201803590602001908080601f0160208091040260200160405190810160405280939291908181526020018383808284378201915050505050509192919290505050612267565b604051808273ffffffffffffffffffffffffffffffffffffffff1673ffffffffffffffffffffffffffffffffffffffff16815260200191505060405180910390f35b34801561083157600080fd5b5061096c600480360381019080803590602001908201803590602001908080601f0160208091040260200160405190810160405280939291908181526020018383808284378201915050505050509192919290803590602001908201803590602001908080601f0160208091040260200160405190810160405280939291908181526020018383808284378201915050505050509192919290803590602001908201803590602001908080601f016020809104026020016040519081016040528093929190818152602001838380828437820191505050505050919291929080359060200190929190803573ffffffffffffffffffffffffffffffffffffffff169060200190929190803573ffffffffffffffffffffffffffffffffffffffff16906020019092919080359060200190929190505050612304565b005b34801561097a57600080fd5b50610a27600480360381019080803590602001908201803590602001908080601f0160208091040260200160405190810160405280939291908181526020018383808284378201915050505050509192919290803573ffffffffffffffffffffffffffffffffffffffff1690602001909291908035906020019092919080359060200190929190803590602001909291908035906020019092919080359060200190929190505050612946565b005b348015610a3557600080fd5b50610a74600480360381019080803573ffffffffffffffffffffffffffffffffffffffff16906020019092919080359060200190929190505050612b19565b604051808215151515815260200191505060405180910390f35b348015610a9a57600080fd5b50610b09600480360381019080803590602001908201803590602001908080601f01602080910402602001604051908101604052809392919081815260200183838082843782019150505050505091929192908035906020019092919080359060200190929190505050612d39565b005b348015610b1757600080fd5b50610b72600480360381019080803590602001908201803590602001908080601f0160208091040260200160405190810160405280939291908181526020018383808284378201915050505050509192919290505050612ed3565b604051808273ffffffffffffffffffffffffffffffffffffffff1673ffffffffffffffffffffffffffffffffffffffff16815260200191505060405180910390f35b348015610bc057600080fd5b50610c25600480360381019080803590602001908201803590602001908080601f016020809104026020016040519081016040528093929190818152602001838380828437820191505050505050919291929080359060200190929190505050612f70565b005b348015610c3357600080fd5b50610cde600480360381019080803590602001908201803590602001908080601f0160208091040260200160405190810160405280939291908181526020018383808284378201915050505050509192919290803590602001908201803590602001908080601f016020809104026020016040519081016040528093929190818152602001838380828437820191505050505050919291929080359060200190929190505050613018565b005b348015610cec57600080fd5b50610d2b600480360381019080803573ffffffffffffffffffffffffffffffffffffffff169060200190929190803590602001909291905050506131b7565b604051808215151515815260200191505060405180910390f35b348015610d5157600080fd5b50610da6600480360381019080803573ffffffffffffffffffffffffffffffffffffffff169060200190929190803573ffffffffffffffffffffffffffffffffffffffff1690602001909291905050506133b3565b6040518082815260200191505060405180910390f35b348015610dc857600080fd5b50610e23600480360381019080803590602001908201803590602001908080601f016020809104026020016040519081016040528093929190818152602001838380828437820191505050505050919291929050505061343a565b6040518080602001828103825283818151815260200191508051906020019080838360005b83811015610e63578082015181840152602081019050610e48565b50505050905090810190601f168015610e905780820380516001836020036101000a031916815260200191505b509250505060405180910390f35b348015610eaa57600080fd5b50610f05600480360381019080803590602001908201803590602001908080601f0160208091040260200160405190810160405280939291908181526020018383808284378201915050505050509192919290505050613550565b6040518082815260200191505060405180910390f35b348015610f2757600080fd5b50610f46600480360381019080803590602001909291905050506135cd565b005b348015610f5457600080fd5b50610faf600480360381019080803590602001908201803590602001908080601f0160208091040260200160405190810160405280939291908181526020018383808284378201915050505050509192919290505050613688565b6040518082815260200191505060405180910390f35b348015610fd157600080fd5b50610ff06004803603810190808035906020019092919050505061371d565b005b348015610ffe57600080fd5b50611033600480360381019080803573ffffffffffffffffffffffffffffffffffffffff169060200190929190505050613727565b6040518082815260200191505060405180910390f35b34801561105557600080fd5b5061110a600480360381019080803590602001908201803590602001908080601f0160208091040260200160405190810160405280939291908181526020018383808284378201915050505050509192919290803590602001908201803590602001908080601f0160208091040260200160405190810160405280939291908181526020018383808284378201915050505050509192919290803590602001909291908035906020019092919050505061376f565b005b34801561111857600080fd5b50611173600480360381019080803590602001908201803590602001908080601f01602080910402602001604051908101604052809392919081815260200183838082843782019150505050505091929192905050506139bb565b6040518082815260200191505060405180910390f35b806000808473ffffffffffffffffffffffffffffffffffffffff1673ffffffffffffffffffffffffffffffffffffffff1681526020019081526020016000208190555080600080600360009054906101000a900473ffffffffffffffffffffffffffffffffffffffff1673ffffffffffffffffffffffffffffffffffffffff1673ffffffffffffffffffffffffffffffffffffffff1681526020019081526020016000205403600080600360009054906101000a900473ffffffffffffffffffffffffffffffffffffffff1673ffffffffffffffffffffffffffffffffffffffff1673ffffffffffffffffffffffffffffffffffffffff168152602001908152602001600020819055505050565b600081600260003373ffffffffffffffffffffffffffffffffffffffff1673ffffffffffffffffffffffffffffffffffffffff16815260200190815260200160002060008573ffffffffffffffffffffffffffffffffffffffff1673ffffffffffffffffffffffffffffffffffffffff168152602001908152602001600020819055508273ffffffffffffffffffffffffffffffffffffffff163373ffffffffffffffffffffffffffffffffffffffff167f8c5be1e5ebec7d5bd14f71427d1e84f3dd0314c0f7b2291e5b200ac8c7c3b925846040518082815260200191505060405180910390a36001905092915050565b6000600154905090565b60008060008573ffffffffffffffffffffffffffffffffffffffff1673ffffffffffffffffffffffffffffffffffffffff1681526020019081526020016000205482111515156113e257600080fd5b600260008573ffffffffffffffffffffffffffffffffffffffff1673ffffffffffffffffffffffffffffffffffffffff16815260200190815260200160002060003373ffffffffffffffffffffffffffffffffffffffff1673ffffffffffffffffffffffffffffffffffffffff16815260200190815260200160002054821115151561146d57600080fd5b600073ffffffffffffffffffffffffffffffffffffffff168373ffffffffffffffffffffffffffffffffffffffff16141515156114a957600080fd5b6114fa826000808773ffffffffffffffffffffffffffffffffffffffff1673ffffffffffffffffffffffffffffffffffffffff16815260200190815260200160002054613a3890919063ffffffff16565b6000808673ffffffffffffffffffffffffffffffffffffffff1673ffffffffffffffffffffffffffffffffffffffff1681526020019081526020016000208190555061158d826000808673ffffffffffffffffffffffffffffffffffffffff1673ffffffffffffffffffffffffffffffffffffffff16815260200190815260200160002054613a5190919063ffffffff16565b6000808573ffffffffffffffffffffffffffffffffffffffff1673ffffffffffffffffffffffffffffffffffffffff1681526020019081526020016000208190555061165e82600260008773ffffffffffffffffffffffffffffffffffffffff1673ffffffffffffffffffffffffffffffffffffffff16815260200190815260200160002060003373ffffffffffffffffffffffffffffffffffffffff1673ffffffffffffffffffffffffffffffffffffffff16815260200190815260200160002054613a3890919063ffffffff16565b600260008673ffffffffffffffffffffffffffffffffffffffff1673ffffffffffffffffffffffffffffffffffffffff16815260200190815260200160002060003373ffffffffffffffffffffffffffffffffffffffff1673ffffffffffffffffffffffffffffffffffffffff168152602001908152602001600020819055508273ffffffffffffffffffffffffffffffffffffffff168473ffffffffffffffffffffffffffffffffffffffff167fddf252ad1be2c89b69c2b068fc378daa952ba7f163c4a11628f55a4df523b3ef846040518082815260200191505060405180910390a3600190509392505050565b6000806004836040518082805190602001908083835b6020831015156117895780518252602082019150602081019050602083039250611764565b6001836020036101000a038019825116818451168082178552505050505050905001915050908152602001604051809103902090508060040160009054906101000a900473ffffffffffffffffffffffffffffffffffffffff16915050919050565b60008060006004846040518082805190602001908083835b6020831015156118285780518252602082019150602081019050602083039250611803565b6001836020036101000a0380198251168184511680821785525050505050509050019150509081526020016040518091039020915061186684611e0c565b82600a015483600201540201606483600201540203905060648181151561188957fe5b0490508092505050919050565b60606000806004846040518082805190602001908083835b6020831015156118d357805182526020820191506020810190506020830392506118ae565b6001836020036101000a03801982511681845116808217855250505050505090500191505090815260200160405180910390209050818160030160009054906101000a900473ffffffffffffffffffffffffffffffffffffffff1690806001815401808255809150509060018203906000526020600020016000909192909190916101000a81548173ffffffffffffffffffffffffffffffffffffffff021916908373ffffffffffffffffffffffffffffffffffffffff16021790555050818160040160009054906101000a900473ffffffffffffffffffffffffffffffffffffffff1690806001815401808255809150509060018203906000526020600020016000909192909190916101000a81548173ffffffffffffffffffffffffffffffffffffffff021916908373ffffffffffffffffffffffffffffffffffffffff16021790555050818160050160009054906101000a900473ffffffffffffffffffffffffffffffffffffffff1690806001815401808255809150509060018203906000526020600020016000909192909190916101000a81548173ffffffffffffffffffffffffffffffffffffffff021916908373ffffffffffffffffffffffffffffffffffffffff1602179055505081805480602002602001604051908101604052809291908181526020018280548015611b2457602002820191906000526020600020905b8160009054906101000a900473ffffffffffffffffffffffffffffffffffffffff1673ffffffffffffffffffffffffffffffffffffffff1681526020019060010190808311611ada575b505050505092505050919050565b600080600260003373ffffffffffffffffffffffffffffffffffffffff1673ffffffffffffffffffffffffffffffffffffffff16815260200190815260200160002060008573ffffffffffffffffffffffffffffffffffffffff1673ffffffffffffffffffffffffffffffffffffffff1681526020019081526020016000205490508083101515611c44576000600260003373ffffffffffffffffffffffffffffffffffffffff1673ffffffffffffffffffffffffffffffffffffffff16815260200190815260200160002060008673ffffffffffffffffffffffffffffffffffffffff1673ffffffffffffffffffffffffffffffffffffffff16815260200190815260200160002081905550611cd8565b611c578382613a3890919063ffffffff16565b600260003373ffffffffffffffffffffffffffffffffffffffff1673ffffffffffffffffffffffffffffffffffffffff16815260200190815260200160002060008673ffffffffffffffffffffffffffffffffffffffff1673ffffffffffffffffffffffffffffffffffffffff168152602001908152602001600020819055505b8373ffffffffffffffffffffffffffffffffffffffff163373ffffffffffffffffffffffffffffffffffffffff167f8c5be1e5ebec7d5bd14f71427d1e84f3dd0314c0f7b2291e5b200ac8c7c3b925600260003373ffffffffffffffffffffffffffffffffffffffff1673ffffffffffffffffffffffffffffffffffffffff16815260200190815260200160002060008873ffffffffffffffffffffffffffffffffffffffff1673ffffffffffffffffffffffffffffffffffffffff168152602001908152602001600020546040518082815260200191505060405180910390a3600191505092915050565b60008060008373ffffffffffffffffffffffffffffffffffffffff1673ffffffffffffffffffffffffffffffffffffffff168152602001908152602001600020549050919050565b60008060006004846040518082805190602001908083835b602083101515611e495780518252602082019150602081019050602083039250611e24565b6001836020036101000a03801982511681845116808217855250505050505090500191505090815260200160405180910390209150601e6064836008015484600b01540202811515611e9757fe5b049050606482600201548202811515611eac57fe5b0492505050919050565b60006004846040518082805190602001908083835b602083101515611ef05780518252602082019150602081019050602083039250611ecb565b6001836020036101000a03801982511681845116808217855250505050505090500191505090815260200160405180910390209050611f65846040805190810160405280600c81526020017f696e766f6963655f70616964000000000000000000000000000000000000000081525084613018565b7fbc111017eb59bb8cbe0882e813e6405d6d9b566fc17de22f5c32a928e4d8f04c848484604051808060200180602001858152602001848152602001838103835286818151815260200191508051906020019080838360005b83811015611fd9578082015181840152602081019050611fbe565b50505050905090810190601f1680156120065780820380516001836020036101000a031916815260200191505b508381038252600c8152602001807f696e766f6963655f7061696400000000000000000000000000000000000000008152506020019550505050505060405180910390a150505050565b60006004846040518082805190602001908083835b60208310151561208a5780518252602082019150602081019050602083039250612065565b6001836020036101000a038019825116818451168082178552505050505050905001915050908152602001604051809103902090506120ff846040805190810160405280600f81526020017f69666163746f725f70726570616964000000000000000000000000000000000081525084613018565b7fbc111017eb59bb8cbe0882e813e6405d6d9b566fc17de22f5c32a928e4d8f04c848484604051808060200180602001858152602001848152602001838103835286818151815260200191508051906020019080838360005b83811015612173578082015181840152602081019050612158565b50505050905090810190601f1680156121a05780820380516001836020036101000a031916815260200191505b508381038252600f8152602001807f69666163746f725f7072657061696400000000000000000000000000000000008152506020019550505050505060405180910390a150505050565b60006004836040518082805190602001908083835b60208310151561222457805182526020820191506020810190506020830392506121ff565b6001836020036101000a038019825116818451168082178552505050505050905001915050908152602001604051809103902090508181600b0181905550505050565b6000806004836040518082805190602001908083835b6020831015156122a2578051825260208201915060208101905060208303925061227d565b6001836020036101000a038019825116818451168082178552505050505050905001915050908152602001604051809103902090508060030160009054906101000a900473ffffffffffffffffffffffffffffffffffffffff16915050919050565b60008781600001908051906020019061231e929190613a6d565b5086816001019080519060200190612337929190613a6d565b5085816006019080519060200190612350929190613a6d565b50848160020181905550838160030160006101000a81548173ffffffffffffffffffffffffffffffffffffffff021916908373ffffffffffffffffffffffffffffffffffffffff160217905550828160040160006101000a81548173ffffffffffffffffffffffffffffffffffffffff021916908373ffffffffffffffffffffffffffffffffffffffff160217905550806004896040518082805190602001908083835b60208310151561241957805182526020820191506020810190506020830392506123f4565b6001836020036101000a038019825116818451168082178552505050505050905001915050908152602001604051809103902060008201816000019080546001816001161561010002031660029004612473929190613aed565b506001820181600101908054600181600116156101000203166002900461249b929190613aed565b50600282015481600201556003820160009054906101000a900473ffffffffffffffffffffffffffffffffffffffff168160030160006101000a81548173ffffffffffffffffffffffffffffffffffffffff021916908373ffffffffffffffffffffffffffffffffffffffff1602179055506004820160009054906101000a900473ffffffffffffffffffffffffffffffffffffffff168160040160006101000a81548173ffffffffffffffffffffffffffffffffffffffff021916908373ffffffffffffffffffffffffffffffffffffffff1602179055506005820160009054906101000a900473ffffffffffffffffffffffffffffffffffffffff168160050160006101000a81548173ffffffffffffffffffffffffffffffffffffffff021916908373ffffffffffffffffffffffffffffffffffffffff16021790555060068201816006019080546001816001161561010002031660029004612602929190613aed565b506007820181600701908054612619929190613b74565b506008820154816008015560098201548160090155600a82015481600a0155600b82015481600b01559050507f6dbba92936a32f5b4d72b49e597fe55a4e625943141214e378b15ba1546dd791888784604051808060200180602001848152602001838103835286818151815260200191508051906020019080838360005b838110156126b3578082015181840152602081019050612698565b50505050905090810190601f1680156126e05780820380516001836020036101000a031916815260200191505b50838103825285818151815260200191508051906020019080838360005b838110156127195780820151818401526020810190506126fe565b50505050905090810190601f1680156127465780820380516001836020036101000a031916815260200191505b509550505050505060405180910390a17f312c47cf5e726e0cecd329fa0753767bf78e5d1db8a94957ccb3531c6f87b3a3888888888888604051808060200180602001806020018781526020018673ffffffffffffffffffffffffffffffffffffffff1673ffffffffffffffffffffffffffffffffffffffff1681526020018573ffffffffffffffffffffffffffffffffffffffff1673ffffffffffffffffffffffffffffffffffffffff16815260200184810384528a818151815260200191508051906020019080838360005b8381101561282f578082015181840152602081019050612814565b50505050905090810190601f16801561285c5780820380516001836020036101000a031916815260200191505b50848103835289818151815260200191508051906020019080838360005b8381101561289557808201518184015260208101905061287a565b50505050905090810190601f1680156128c25780820380516001836020036101000a031916815260200191505b50848103825288818151815260200191508051906020019080838360005b838110156128fb5780820151818401526020810190506128e0565b50505050905090810190601f1680156129285780820380516001836020036101000a031916815260200191505b50995050505050505050505060405180910390a15050505050505050565b60006004886040518082805190602001908083835b602083101515612980578051825260208201915060208101905060208303925061295b565b6001836020036101000a03801982511681845116808217855250505050505090500191505090815260200160405180910390209050868160050160006101000a81548173ffffffffffffffffffffffffffffffffffffffff021916908373ffffffffffffffffffffffffffffffffffffffff1602179055508581600801819055508481600a01819055508281600b0181905550612a53886040805190810160405280601081526020017f69666163746f725f70726f706f7365640000000000000000000000000000000081525084613018565b7f9b62f721fe7bfd81ac2c2c3368b795063fed9fdd62121df695b7136eac1e000d88878787866040518080602001868152602001858152602001848152602001838152602001828103825287818151815260200191508051906020019080838360005b83811015612ad1578082015181840152602081019050612ab6565b50505050905090810190601f168015612afe5780820380516001836020036101000a031916815260200191505b50965050505050505060405180910390a15050505050505050565b60008060003373ffffffffffffffffffffffffffffffffffffffff1673ffffffffffffffffffffffffffffffffffffffff168152602001908152602001600020548211151515612b6857600080fd5b600073ffffffffffffffffffffffffffffffffffffffff168373ffffffffffffffffffffffffffffffffffffffff1614151515612ba457600080fd5b612bf5826000803373ffffffffffffffffffffffffffffffffffffffff1673ffffffffffffffffffffffffffffffffffffffff16815260200190815260200160002054613a3890919063ffffffff16565b6000803373ffffffffffffffffffffffffffffffffffffffff1673ffffffffffffffffffffffffffffffffffffffff16815260200190815260200160002081905550612c88826000808673ffffffffffffffffffffffffffffffffffffffff1673ffffffffffffffffffffffffffffffffffffffff16815260200190815260200160002054613a5190919063ffffffff16565b6000808573ffffffffffffffffffffffffffffffffffffffff1673ffffffffffffffffffffffffffffffffffffffff168152602001908152602001600020819055508273ffffffffffffffffffffffffffffffffffffffff163373ffffffffffffffffffffffffffffffffffffffff167fddf252ad1be2c89b69c2b068fc378daa952ba7f163c4a11628f55a4df523b3ef846040518082815260200191505060405180910390a36001905092915050565b60006004846040518082805190602001908083835b602083101515612d735780518252602082019150602081019050602083039250612d4e565b6001836020036101000a03801982511681845116808217855250505050505090500191505090815260200160405180910390209050612de8846040805190810160405280600c81526020017f696e766f6963655f70616964000000000000000000000000000000000000000081525084613018565b7fbc111017eb59bb8cbe0882e813e6405d6d9b566fc17de22f5c32a928e4d8f04c848484604051808060200180602001858152602001848152602001838103835286818151815260200191508051906020019080838360005b83811015612e5c578082015181840152602081019050612e41565b50505050905090810190601f168015612e895780820380516001836020036101000a031916815260200191505b50838103825260108152602001807f69666163746f725f706f737470616964000000000000000000000000000000008152506020019550505050505060405180910390a150505050565b6000806004836040518082805190602001908083835b602083101515612f0e5780518252602082019150602081019050602083039250612ee9565b6001836020036101000a038019825116818451168082178552505050505050905001915050908152602001604051809103902090508060050160009054906101000a900473ffffffffffffffffffffffffffffffffffffffff16915050919050565b7fa33e80ad998423289318de67565422eb2a0fbc5fdb2296e77c7d736f4764957582826040518080602001838152602001828103825284818151815260200191508051906020019080838360005b83811015612fd9578082015181840152602081019050612fbe565b50505050905090810190601f1680156130065780820380516001836020036101000a031916815260200191505b50935050505060405180910390a15050565b60006004846040518082805190602001908083835b602083101515613052578051825260208201915060208101905060208303925061302d565b6001836020036101000a038019825116818451168082178552505050505050905001915050908152602001604051809103902090508281600601908051906020019061309f929190613a6d565b507f6dbba92936a32f5b4d72b49e597fe55a4e625943141214e378b15ba1546dd791848484604051808060200180602001848152602001838103835286818151815260200191508051906020019080838360005b8381101561310e5780820151818401526020810190506130f3565b50505050905090810190601f16801561313b5780820380516001836020036101000a031916815260200191505b50838103825285818151815260200191508051906020019080838360005b83811015613174578082015181840152602081019050613159565b50505050905090810190601f1680156131a15780820380516001836020036101000a031916815260200191505b509550505050505060405180910390a150505050565b600061324882600260003373ffffffffffffffffffffffffffffffffffffffff1673ffffffffffffffffffffffffffffffffffffffff16815260200190815260200160002060008673ffffffffffffffffffffffffffffffffffffffff1673ffffffffffffffffffffffffffffffffffffffff16815260200190815260200160002054613a5190919063ffffffff16565b600260003373ffffffffffffffffffffffffffffffffffffffff1673ffffffffffffffffffffffffffffffffffffffff16815260200190815260200160002060008573ffffffffffffffffffffffffffffffffffffffff1673ffffffffffffffffffffffffffffffffffffffff168152602001908152602001600020819055508273ffffffffffffffffffffffffffffffffffffffff163373ffffffffffffffffffffffffffffffffffffffff167f8c5be1e5ebec7d5bd14f71427d1e84f3dd0314c0f7b2291e5b200ac8c7c3b925600260003373ffffffffffffffffffffffffffffffffffffffff1673ffffffffffffffffffffffffffffffffffffffff16815260200190815260200160002060008773ffffffffffffffffffffffffffffffffffffffff1673ffffffffffffffffffffffffffffffffffffffff168152602001908152602001600020546040518082815260200191505060405180910390a36001905092915050565b6000600260008473ffffffffffffffffffffffffffffffffffffffff1673ffffffffffffffffffffffffffffffffffffffff16815260200190815260200160002060008373ffffffffffffffffffffffffffffffffffffffff1673ffffffffffffffffffffffffffffffffffffffff16815260200190815260200160002054905092915050565b606060006004836040518082805190602001908083835b6020831015156134765780518252602082019150602081019050602083039250613451565b6001836020036101000a03801982511681845116808217855250505050505090500191505090815260200160405180910390209050806006018054600181600116156101000203166002900480601f0160208091040260200160405190810160405280929190818152602001828054600181600116156101000203166002900480156135435780601f1061351857610100808354040283529160200191613543565b820191906000526020600020905b81548152906001019060200180831161352657829003601f168201915b5050505050915050919050565b6000806004836040518082805190602001908083835b60208310151561358b5780518252602082019150602081019050602083039250613566565b6001836020036101000a038019825116818451168082178552505050505050905001915050908152602001604051809103902090508060020154915050919050565b600360009054906101000a900473ffffffffffffffffffffffffffffffffffffffff1673ffffffffffffffffffffffffffffffffffffffff163373ffffffffffffffffffffffffffffffffffffffff1614151561362957600080fd5b80600160008282540192505081905550806000803373ffffffffffffffffffffffffffffffffffffffff1673ffffffffffffffffffffffffffffffffffffffff1681526020019081526020016000206000828254019250508190555050565b60008060006004846040518082805190602001908083835b6020831015156136c557805182526020820191506020810190506020830392506136a0565b6001836020036101000a03801982511681845116808217855250505050505090500191505090815260200160405180910390209150606482600a015483600201540281151561371057fe5b0490508092505050919050565b8060018190555050565b60008060008373ffffffffffffffffffffffffffffffffffffffff1673ffffffffffffffffffffffffffffffffffffffff168152602001908152602001600020549050919050565b60006004856040518082805190602001908083835b6020831015156137a95780518252602082019150602081019050602083039250613784565b6001836020036101000a03801982511681845116808217855250505050505090500191505090815260200160405180910390209050838160060190805190602001906137f6929190613a6d565b507f3443fdc47c83e1b3a15944506ebe09d32b7193aee254db907046f94fec59ae498584846040518080602001848152602001838152602001828103825285818151815260200191508051906020019080838360005b8381101561386757808201518184015260208101905061384c565b50505050905090810190601f1680156138945780820380516001836020036101000a031916815260200191505b5094505050505060405180910390a17f6dbba92936a32f5b4d72b49e597fe55a4e625943141214e378b15ba1546dd791858584604051808060200180602001848152602001838103835286818151815260200191508051906020019080838360005b838110156139115780820151818401526020810190506138f6565b50505050905090810190601f16801561393e5780820380516001836020036101000a031916815260200191505b50838103825285818151815260200191508051906020019080838360005b8381101561397757808201518184015260208101905061395c565b50505050905090810190601f1680156139a45780820380516001836020036101000a031916815260200191505b509550505050505060405180910390a15050505050565b6000806004836040518082805190602001908083835b6020831015156139f657805182526020820191506020810190506020830392506139d1565b6001836020036101000a038019825116818451168082178552505050505050905001915050908152602001604051809103902090508060020154915050919050565b6000828211151515613a4657fe5b818303905092915050565b60008183019050828110151515613a6457fe5b80905092915050565b828054600181600116156101000203166002900490600052602060002090601f016020900481019282601f10613aae57805160ff1916838001178555613adc565b82800160010185558215613adc579182015b82811115613adb578251825591602001919060010190613ac0565b5b509050613ae99190613bc6565b5090565b828054600181600116156101000203166002900490600052602060002090601f016020900481019282601f10613b265780548555613b63565b82800160010185558215613b6357600052602060002091601f016020900482015b82811115613b62578254825591600101919060010190613b47565b5b509050613b709190613bc6565b5090565b828054828255906000526020600020908101928215613bb55760005260206000209182015b82811115613bb4578254825591600101919060010190613b99565b5b509050613bc29190613beb565b5090565b613be891905b80821115613be4576000816000905550600101613bcc565b5090565b90565b613c2b91905b80821115613c2757600081816101000a81549073ffffffffffffffffffffffffffffffffffffffff021916905550600101613bf1565b5090565b905600a165627a7a723058209e94305852d3f0fb3e37a9549ca1e7497720d98b5feb7532341c1f777c7256ec0029",
  "source": "pragma solidity ^0.4.4;\n\nimport 'zeppelin-solidity/contracts/token/ERC20/StandardToken.sol';\n\ncontract Ifactor is StandardToken {\n    struct Invoice {\n        string invoiceId;\n        string invoiceNo;\n        uint amount;\n        address supplier;\n        address buyer;\n        address financer;\n    \tstring state;\n        address[] owners;\n    \tuint factorCharges;\n    \tuint factorInterest;\n    \tuint factorSaftyPercentage;\n    \tuint daysToPayout;\n    }\n    \n    address owner;\n\n    mapping (string => Invoice) Invoices;\n    \n    modifier mustBeOwner() {\n        require(msg.sender == owner);\n        _;\n    }\n\n\tfunction Ifactor() public {\n\t    owner = msg.sender;\n\t    totalSupply_ = 1000000000;\n\t    balances[msg.sender] = 1000000000;\n\t}\n\n\tfunction setTotalSupply(uint _amt) {\n\t\ttotalSupply_ = _amt;\n\t}\n\n\tfunction addTotalSupply(uint _tokens) public mustBeOwner {\n\t\ttotalSupply_ += _tokens;\n\t\tbalances[msg.sender] += _tokens;\n\t}\n\n\tfunction buyTokens(address _address, uint _value) {\n\t    balances[_address] = _value;\n\t    balances[owner] = balances[owner] - _value;\n\t}\n\n    function getBalance(address _address) public view returns(uint) {\n        return balances[_address];\n    }\n\n\tfunction addInvoice(string _invoice_id, string _invoice_no, string _state, uint _amount, address _supplier, address _buyer, uint _created) public {\n\t\tInvoice inv;\n\t\tinv.invoiceId = _invoice_id ;\n\t\tinv.invoiceNo = _invoice_no ;\n\t\tinv.state = _state ;\n\t\tinv.amount = _amount ;\n\t\tinv.supplier = _supplier ;\n\t\tinv.buyer = _buyer;\n\t\tInvoices[_invoice_id] = inv;\n\t\tinvoiceHistory(_invoice_id, _state, _created);\n\t\tcreateInvoice(_invoice_id, _invoice_no, _state, _amount, _supplier, _buyer);\n\t}\n\n\tfunction getState(string _invoice_id) public view returns(string) {\n\t\tInvoice inv = Invoices[_invoice_id];\n\t\treturn inv.state;\n\t}\n\n\tfunction setState(string _invoice_id, string _invoice_state, uint _created) public {\n\t\tInvoice inv = Invoices[_invoice_id];\n\t\tinv.state = _invoice_state;\n\t\tinvoiceHistory(_invoice_id, _invoice_state, _created);\n\t}\n\n\tfunction emitPayableDate(string _invoice_id, uint _payable_date) public {\n\t\tpayableDates(_invoice_id, _payable_date);\n\t}\n\n\tfunction setPayoutDays(string _invoice_id, uint _payout_days) {\n\t\tInvoice inv = Invoices[_invoice_id];\n\t\tinv.daysToPayout = _payout_days;\n\t}\n\n\tfunction getAmount(string _invoice_id) public constant returns(uint) {\n\t\tInvoice inv = Invoices[_invoice_id];\n        return inv.amount;\n\t}\n\n\tfunction addFactoring(string _invoice_id, address _financer, uint _factor_charges, uint _factor_safty_percentage, uint _amount, uint _days_to_payout, uint _created) public {\n\t\tInvoice inv = Invoices[_invoice_id];\n\t\tinv.financer = _financer;\n\t\tinv.factorCharges = _factor_charges;\n\t\tinv.factorSaftyPercentage = _factor_safty_percentage;\n\t\tinv.daysToPayout = _days_to_payout;\n        setState(_invoice_id, 'ifactor_proposed', _created);\n\t    factoringProposal(_invoice_id, _factor_charges, _factor_safty_percentage, _amount, _created);\n\t}\n\n\tfunction getInterestAmount(string _invoice_id) public constant returns(uint) {\n\t\tInvoice inv = Invoices[_invoice_id];\n\t\tuint _charges = (inv.daysToPayout  * inv.factorCharges * 100)/30;\n\t\treturn (_charges * inv.amount)/100;\n\t}\n\n\tfunction requestFactoring(string _invoice_id, string _invoice_state, uint _amount, uint _created) public {\n\t\tInvoice inv = Invoices[_invoice_id];\n\t\tinv.state = _invoice_state;\n        factoringRequest(_invoice_id, _amount, _created);\n\t\tinvoiceHistory(_invoice_id, _invoice_state, _created);\n\t}\n\n\tfunction prepayFactoring(string _invoice_id, uint _amount, uint _created) public {\n\t\tInvoice inv = Invoices[_invoice_id];\n        setState(_invoice_id, 'ifactor_prepaid', _created);\n        ifactorTransfer(_invoice_id, 'ifactor_prepaid', _amount, _created);\n\t}\n\n    function payInvoice(string _invoice_id, uint _amount, uint _created) public {\n\t\tInvoice inv = Invoices[_invoice_id];\n        setState(_invoice_id, 'invoice_paid', _created);\n        ifactorTransfer(_invoice_id, 'invoice_paid', _amount, _created);\n    }\n\n\tfunction postpayFactoring(string _invoice_id, uint _amount, uint _created) public {\n\t\tInvoice inv = Invoices[_invoice_id];\n        setState(_invoice_id, 'invoice_paid', _created);\n        ifactorTransfer(_invoice_id, 'ifactor_postpaid', _amount, _created);\n\t}\n\n    function getPostpayAmount(string _invoice_id) public returns(uint) {\n\t\tInvoice inv = Invoices[_invoice_id];\n\t\tuint _value = (inv.amount * 100) -\n\t\t\t\t\t\t(\n\t\t\t\t\t\t\t(inv.amount * inv.factorSaftyPercentage) +\n\t\t\t\t\t\t\tgetInterestAmount(_invoice_id)\n\t\t\t\t\t\t);\n        _value = _value/100;\n\t\treturn _value;\n    }\n\n    function getPrepayAmount(string _invoice_id) public returns(uint) {\n\t\tInvoice inv = Invoices[_invoice_id];\n\t\tuint _value =  inv.amount * inv.factorSaftyPercentage/100;\n\t\treturn _value;\n    }\n\n   function getAddresses(string _invoice_id) public view returns(address[]) {\n        address[] entities;\n        Invoice inv = Invoices[_invoice_id];\n        entities.push(inv.supplier);\n        entities.push(inv.buyer);\n        entities.push(inv.financer);\n        return entities;\n    }\n\n   function getSupplier(string _invoice_id) public view returns(address) {\n        Invoice inv = Invoices[_invoice_id];\n        return inv.supplier;\n    }\n\n   function getBuyer(string _invoice_id) public view returns(address) {\n        Invoice inv = Invoices[_invoice_id];\n        return inv.buyer;\n    }\n\n   function getFinancer(string _invoice_id) public view returns(address) {\n        Invoice inv = Invoices[_invoice_id];\n        return inv.financer;\n    }\n\n    function getInvoiceAmount(string _invoice_id) public returns(uint){\n\t\tInvoice inv = Invoices[_invoice_id];\n\t\treturn inv.amount;\n    }\n\n\tevent createInvoice(string invoiceId, string invoiceNo, string state, uint amount,\n\t\t\t\t\t\taddress supplier, address buyer);\n\tevent invoiceHistory(string invoiceId, string state, uint created);\n\tevent factoringRequest(string invoiceId, uint amount, uint created);\n\tevent factoringProposal(string invoiceId, uint factorCharges, uint factorSaftyPercentage, uint amount, uint created);\n   \tevent ifactorTransfer(string invoiceId, string transferType, uint amount, uint created);\n   \tevent payableDates(string invoiceId, uint payableDate);\n}",
  "sourcePath": "/root/ifactor-poc/deployer/contracts/Ifactor.sol",
  "compiler": {
    "name": "solc",
    "version": "0.4.24+commit.e67f0147.Emscripten.clang"
  },
  "schemaVersion": "2.0.1",
  "updatedAt": "2018-12-21T10:12:43.071Z"
}